:020000040800F2
:10000000C806002089010008DB1000087F0F0008E7
:10001000D91000088F020008331200080000000009
:10002000000000000000000000000000DF100008D9
:100030009102000800000000DD100008E110000837
:10004000A3010008A3010008A3010008A301000800
:10005000A3010008A3010008A3010008A3010008F0
:10006000A3010008A3010008A3010008A3010008E0
:10007000A3010008A3010008A3010008A3010008D0
:10008000A3010008A3010008A3010008A3010008C0
:10009000A3010008A3010008A3010008A3010008B0
:1000A000A3010008A3010008A3010008A3010008A0
:1000B00045110008A3010008A3010008A3010008DE
:1000C000A3010008A3010008A3010008A301000880
:1000D000A3010008A3010008A3010008A301000870
:1000E000A3010008A3010008A301000800F002F822
:1000F00000F03AF80AA090E8000C82448344AAF188
:100100000107DA4501D100F02FF8AFF2090EBAE885
:100110000F0013F0010F18BFFB1A43F0010318473B
:1001200094110000B4110000103A24BF78C878C1BF
:10013000FAD8520724BF30C830C144BF04680C60ED
:10014000704700000023002400250026103A28BF35
:1001500078C1FBD8520728BF30C148BF0B60704739
:100160001FB51FBD10B510BD00F058F81146FFF7C0
:10017000F7FF01F06FF800F076F803B4FFF7F2FF35
:1001800003BC00F07DF8000009488047094800479B
:10019000FEE7FEE7FEE7FEE7FEE7FEE7FEE7FEE737
:1001A000FEE7FEE704480549054A064B7047000094
:1001B00043110008ED000008C8000020C806002018
:1001C000C8020020C80200204FF0000200B513460C
:1001D00094469646203922BFA0E80C50A0E80C5067
:1001E000B1F12001BFF4F7AF090728BFA0E80C5018
:1001F00048BF0CC05DF804EB890028BF40F8042B11
:1002000008BF704748BF20F8022B11F0804F18BF7D
:1002100000F8012B7047704770477047754600F033
:100220002BF8AE4605006946534620F00700854688
:1002300018B020B5FFF7B6FFBDE820404FF000062C
:100240004FF000074FF000084FF0000B21F00701BE
:10025000AC46ACE8C009ACE8C009ACE8C009ACE801
:10026000C0098D46704710B50446AFF300802046A4
:10027000BDE81040FFF781BF0048704764000020D0
:1002800001491820ABBEFEE7260002007047FEE7DA
:10029000704700002DE9F05F554C4FF400560022E6
:1002A0003146204600F09AF9770000223946204670
:1002B00000F094F901222021204600F08FF901225C
:1002C0004021204600F08AF901228021204600F0DA
:1002D00085F94FF4807801224146204600F07EF9EE
:1002E0004FF4007901224946204600F077F94FF497
:1002F000806A01225146204600F070F94FF4006BED
:1003000001225946204600F069F9012211032046D6
:1003100000F064F9374D4FF000024FF02001E8780B
:100320000028204632D000F059F900224021204612
:1003300000F054F900228021204600F04FF90022FD
:100340004146204600F04AF901224946204600F085
:1003500045F901225146204600F040F90022594655
:10036000204600F03BF901221103204600F036F947
:1003700000223146204600F031F90122394620465C
:1003800000F02CF90020E870BDE8F09F00F026F99D
:1003900001224021204600F021F900228021204640
:1003A00000F01CF900224146204600F017F9002217
:1003B0004946204600F012F900225146204600F03E
:1003C0000DF900225946204600F008F901221103D8
:1003D000204600F003F901223146204600F0FEF8E5
:1003E00000223946204600F0F9F80120CBE7000052
:1003F000000801400000002072B6FEE72DE9F84F2A
:10040000DFF8B8910024A9F1040B23460F2709F166
:10041000040AABF1040EC9E00125A5402A40AA4216
:100420007DD1674ED1F804C0ACEB0608B44532D09C
:1004300014DCBCF1030F3AD009DCBCF1000F2AD068
:10044000BCF1010F1CD0BCF1020F31D11DE0BCF199
:10045000110F17D0BCF1120F2AD119E0B8F5881F7F
:1004600019D006DCB8F5803F15D0B8F5801F1FD134
:1004700011E0B8F5001F0ED0B8F5041F18D10AE03E
:10048000CB6815E0CB681B1D12E0CB6808330FE08A
:10049000CB680C330CE08B682BB1012B4FF00803B9
:1004A00003D0456104E0042302E0056100E000237D
:1004B000FF2A01D8064601E000F104064FEA840550
:1004C00001D9A5F12005D6F8008007FA05FC28EA35
:1004D0000C0803FA05F548EA0508C6F800804D68DF
:1004E000ED0062D5374DAE6946F00106AE61AD69EB
:1004F00024F0030605F001050095334D06EB050CCD
:10050000DCF80850A607360F07FA06F825EA0805B2
:10051000DFF8B880404503D14FF0000817E044E011
:10052000DFF8AC80404502D14FF001080FE0DFF862
:10053000A480404502D14FF0020808E0DFF898801F
:10054000404502D14FF0030801E04FF0040808FADB
:1005500006F848EA0508CCF808804D68D9F800602C
:10056000ED024D4601D5164300E096432E604D68DE
:10057000DAF80060AD02554601D5164300E0964317
:100580002E604D68DBF80060AD035D4601D5164373
:1005900000E096432E604D68DEF80060ED0375467E
:1005A00001D5164300E096432E60641C0D682A4670
:1005B000E5407FF431AFBDE8F88F0000080401404A
:1005C000000011100010024000000140000801402E
:1005D000000C014000100140001401400AB101610B
:1005E00070470904FBE7000001488068704700007D
:1005F0000C00002002488168027811448160704735
:100600000C000020074810B5016841F0100101609E
:10061000032000F075F80F2000F006F800F024F831
:10062000002010BD0020024070B50D4D04464FF46F
:100630007A712878B1FBF0F00A490968B1FBF0F053
:1006400000F0BCFA48B9102C07D200222146501EF7
:1006500000F036F800206C6070BD012070BD000015
:100660000C000020180000200C4808B5816941F0FA
:1006700001018161816901F001010091C16941F0CD
:100680008051C161C06900F0805000900448416809
:1006900021F0E06141F08061416008BD001002403E
:1006A00000000140002809DB00F01F0201219140F9
:1006B0004009800000F1E020C0F800117047000000
:1006C000F0B40E4B1B680C46C3F30223C3F10705BD
:1006D000042D00D90425191D072901D2002300E0AB
:1006E000DB1E012606FA05F1491E214099409E4075
:1006F000761E16403143F0BC00F09CBD0CED00E0CE
:10070000064900F0070208684FF6FF03184040EA68
:100710000220034A10430860704700000CED00E01F
:100720000000FA052DE9F0470F46050061D0434E61
:10073000306800F00700B84209D2306820F00700A6
:1007400038433060306800F00700B84251D1286863
:100750003B4C810712D5400703D5606840F4E06048
:1007600060602878000703D5606840F460506060DE
:100770006068A96820F0F000084360602878C0072E
:1007800028D06868012810D02168022810D0890775
:1007900000292EDA616821F0030101436160FFF74F
:1007A00023FF804641F288390DE021688903EFE795
:1007B0008901EDE7FFF718FFA0EB0801494502D9D1
:1007C0000320BDE8F0876068696800F00C00B0EBBA
:1007D000810FEFD1306800F00700B8420BD93068C4
:1007E00020F0070038433060306800F00700B8425E
:1007F00001D00120E5E72878400705D56068E96861
:1008000020F4E060084360602878000706D560683F
:10081000296920F4605040EAC100606000F018F8D7
:100820006168084AC1F30311515CC8400649086079
:1008300006480068FFF7F8FE0020C2E700200240EB
:1008400000100240A2120008180000201000002032
:100850000E4A51680E4801F00C03042B11D0082BEE
:100860000FD10C48C1F38343C903C05C0AD551685A
:10087000084AC1F34041921E515C054A5043B0FB07
:10088000F1F07047044948437047000000100240EF
:1008900000127A009212000800093D002DE9F84F7D
:1008A000040070D02078C04DC00749D06868C0F3FC
:1008B0008100012807D06868C0F38100022809D1AF
:1008C0006868C00306D52868800339D560680028A9
:1008D000E7D035E06068B0F5803F0BD010B1B0F5DF
:1008E000A02F11D0286820F480302860286820F4D8
:1008F000802002E0286840F480302860606890B171
:10090000FFF772FE06460AE0286840F4802028605F
:10091000F0E700BFFFF768FE801B642873D82868E3
:100920008003F7D50CE0FFF75FFE064605E000BF49
:10093000FFF75AFE801B6428F0D828688003F7D49C
:1009400020789A4E80074FF001094FF0000839D502
:10095000686810F00C0F07D06868C0F381000228A7
:1009600009D16868C00306D42868800714D52069B7
:10097000012808D110E02069B0B1C6F80090FFF757
:1009800033FE074605E00AE1FFF72EFEC01B0228F2
:10099000C4D828688007F7D52868616920F0F80076
:1009A00040EAC10028600DE0C6F80080FFF71CFE99
:1009B000074604E0FFF718FEC01B022823D828686A
:1009C0008007F7D4207800072CD57948A169D9B1E0
:1009D000C0F80090FFF708FE074604E0FFF704FEAA
:1009E000C01B02280FD8686A8007F7D571484FF4FA
:1009F000FA510068B0FBF1F0009000BF0098411E72
:100A00000091FAD20EE080E0C0F80080FFF7ECFD24
:100A1000074604E0FFF7E8FDC01B022875D8686AA6
:100A20008007F7D42078400760D5E8690027C00028
:100A300008D4E86940F08050E861E869012700F0D7
:100A4000805000905C480168C90513D40168834652
:100A500041F480710160FFF7C7FD824606E000BFE8
:100A6000FFF7C2FDA0EB0A0064284ED8DBF80000B7
:100A7000C005F5D5E06801280AD008B1052813D0D3
:100A8000286A20F001002862286A20F0040002E0B1
:100A9000286A40F001002862E06841F2883B98B182
:100AA000FFF7A2FD82460BE0286A40F004002862AE
:100AB000EEE700BFFFF798FDA0EB0A0159455AD8B1
:100AC000286A8007F6D50CE0FFF78EFD824605E028
:100AD000FFF78AFDA0EB0A0159454CD8286A800728
:100AE000F6D41FB1E86920F08050E861E06988B36E
:100AF0006968C1F38101022944D00228C6F86080E8
:100B000004D0FFF771FD044638E034E0FFF76CFDD8
:100B1000074604E0FFF768FDC01B02282BD82868B1
:100B20008001F7D4206AB0F5803F05D16868A168DC
:100B300020F4003008436860D4E90801084369687C
:100B400021F4741108436860C6F86090FFF74CFD0B
:100B5000044606E025E000BFFFF746FD001B022823
:100B600009D828688001F7D51BE000BFFFF73CFDDE
:100B7000001B022802D90320BDE8F88F28688001F5
:100B8000F4D40EE00128F7D06868226A00F48031BE
:100B9000914204D1616A00F47010884201D00120B2
:100BA000EAE70020E8E700000010024000004242AF
:100BB00080044242180000200070004010B5401E22
:100BC000B0F1807F01D3012010BD4FF0E0246061BF
:100BD0000F21601700F02EFB0020A061072020618C
:100BE000002010BD7047704770B590F83C20012A76
:100BF00026D0012480F83C40022280F83D20036882
:100C00005A689D6822F070060A6832435A600D4B9C
:100C100002689A4208D0B2F1804F05D00A4B9A423E
:100C200002D00A4B9A4204D1496825F08003194347
:100C3000916080F83D40002180F83C10084670BD6E
:100C4000022070BD002C014000040040000800405C
:100C500010B5040003D094F83D0010B107E0012066
:100C600010BD002084F83C00204600F01FF8022050
:100C700084F83D00211D206800F06AFA012084F804
:100C8000460084F83E0084F83F0084F8400084F871
:100C9000410084F8420084F8430084F8440084F85A
:100CA000450084F83D00002010BD000008B5006834
:100CB000B0F1804F12D10A48C16941F00101C16110
:100CC000C069002200F00100009011461C20FFF7CF
:100CD000F7FCBDE808401C20FFF7E4BC08BD00009D
:100CE0000010024090F83D10012901D0012070470A
:100CF000022180F83D100168CA6842F00102CA6012
:100D000000680B49884208D0B0F1804F05D00949EE
:100D1000884202D00849884204D1816801F0070165
:100D2000062903D0016841F00101016000207047ED
:100D3000002C0140000400400008004070B504464B
:100D400090F83C000025012817D0012684F83C606B
:100D5000022084F83D002068826822F0770222F4A5
:100D60007F4282600868502838D00DDC20284FD0A0
:100D700005DC90B3102811D14AE0022070BD302864
:100D800046D040280AD13BE060282FD070280DD0F3
:100D9000B0F5805F03D0B0F5005F12D0012584F874
:100DA0003D60002084F83C00284670BDCB68D1E946
:100DB0000121206800F008FA2068816841F077017D
:100DC00009E0CB68D1E90121206800F0FDF9206835
:100DD000816841F480418160E1E719E0CA684968AF
:100DE000206800F003FA5021206806E0CA684968CC
:100DF000206800F00CFA6021206800F0EFF9CEE7DF
:100E0000CA684968206800F0F1F940212068F4E7D9
:100E1000226801461046F0E770472DE9F04104468C
:100E20000068C66805694FF00007A90713D5B10728
:100E300011D5F91E016101202077206880698007A3
:100E4000204602D0FFF7E8FF04E000F07EF82046DD
:100E500000F07CF82777680716D5700714D521684D
:100E60006FF004000861022020772068806910F488
:100E7000407F204602D0FFF7CFFF04E000F065F886
:100E8000204600F063F82777280715D5300713D5DB
:100E900021686FF008000861042020772068C0698D
:100EA0008007204602D0FFF7B7FF04E000F04DF8BE
:100EB000204600F04BF82777E80616D5F00614D543
:100EC00021686FF010000861082020772068C06951
:100ED00010F4407F204602D0FFF79EFF04E000F0B0
:100EE00034F8204600F032F82777E80708D0F007FA
:100EF00006D021686FF001000861204600F028F854
:100F0000280608D5300606D521686FF080000861F4
:100F10002046FFF767FE680608D5700606D52168EB
:100F20006FF040000861204600F028F8A8060AD5B6
:100F3000B00608D521686FF0200008612046BDE8A2
:100F4000F041FFF750BEBDE8F081704770470000E8
:100F50000068B0F1804F0ED107488168491C81605C
:100F6000012181708288521C92B282807D2A02D334
:100F70000022828041707047000000207047FEE729
:100F800070B51B4D012202212846FFF727FB0122E5
:100F900004212846FFF722FB012208212846FFF7FB
:100FA0001DFB012210212846FFF718FB114C217868
:100FB00031B1012907D0022908D0032909D00DE059
:100FC0000022022107E00022042104E0002208217F
:100FD00001E0002210212846FFF700FB2078401C8A
:100FE000C0B22070042801D30020207070BD000022
:100FF000000801400000002030B585B000241B48E7
:101000000094019402940394816941F0100181617C
:10101000816901F010010491816941F02001816131
:10102000816901F020010491816941F0040181612D
:1010300080690F4D00F00400049001221E21284613
:10104000FFF7CCFA002247F6E0712846FFF7C6FA10
:1010500047F6FE7000900120CDE9010402200390C4
:1010600069462846FFF7CAF905B030BD00100240B6
:101070000008014010B586B0002416480094019481
:101080000294039404944FF080410594016041F66A
:101090001F41C0E901140921C0E903148461FFF76D
:1010A000D7FD08B1FFF7A8F94FF4805000906946CA
:1010B0000848FFF743FE08B1FFF79EF9049404A91E
:1010C00004480594FFF790FD002801D0FFF794F93C
:1010D00006B010BD1C000020FEE7FEE77047704719
:1010E000FFF788BA30B58FB028216846FFF76CF853
:1010F00014210AA8FFF768F801210804CDE90010BF
:101100000024029402250491CDE907504FF4E01029
:1011100009906846FFF7C2FB08B172B6FEE70F20E0
:10112000CDE90A054FF48060CDE90C4002210AA800
:101130000E94FFF7F7FA002801D072B6FEE70FB061
:1011400030BD70470148FFF768BE00001C0000205A
:10115000F0B50268194B1A4C1A4D4FF0804798426F
:1011600005D0B84203D0A04201D0A84203D122F05A
:1011700070064A683243984205D0B84203D0A04274
:1011800001D0A84203D122F44074CA6822434C69BA
:1011900022F08002224302608A68C2620A68826288
:1011A000984201D109690163012141610169C907BF
:1011B00003D0016921F001010161F0BD002C014063
:1011C000000400400008004010B5846842EA032291
:1011D00024F47F440A432243826010BD826822F0D7
:1011E00070020A4342F007018160704710B5036A3C
:1011F000046A24F001040462846924F0F00444EADF
:10120000021423F00A020A438461026210BD10B581
:10121000036A046A24F010040462846923F0A003C2
:1012200024F4704444EA023243EA0111826101620B
:1012300010BDFEE70907090E002804DB00F1E020DD
:1012400080F80014704700F00F0000F1E02080F8F3
:10125000141D7047FFF7D6F9FFF744FFFFF7CCFEE8
:10126000FFF708FF0848FFF73DFD084C00256078B0
:1012700010B16570FFF784FEA0780028F7D0A57044
:10128000FFF708F8F3E700001C0000200000002032
:10129000010202030405060708090A0B0C0D0E0FD4
:1012A0001010000000000000000001020304060707
:1012B00008090000D4120008000000201C000000F3
:1012C00028010008F01200081C000020AC060000F5
:1012D00044010008000000000000000000000000C1
:1012E00001000000100000000000000000127A0061
:04000005080000ED02
:00000001FF
