:020000040800F2
:10000000000700209D010008AB190008A118000896
:10001000A519000865070008AF20000800000000CF
:10002000000000000000000000000000251C000887
:100030006B07000800000000B1190008D11E00087D
:10004000B7010008B7010008B7010008B7010008B0
:10005000B7010008B7010008B7010008B7010008A0
:10006000B7010008B7010008B7010008B701000890
:10007000B7010008B7010008B7010008B701000880
:10008000B7010008B7010008B7010008B701000870
:10009000B7010008B7010008B7010008950700087C
:1000A000B7010008B7010008B7010008B701000850
:1000B000B7010008B7010008B7010008B701000840
:1000C000B7010008B7010008B7010008B701000830
:1000D000B7010008B7010008B7010008B701000820
:1000E000B7010008B7010008B701000800F002F8E6
:1000F00000F045F80AA090E8000C82448344AAF17D
:100100000107DA4501D100F03AF8AFF2090EBAE87A
:100110000F0013F0010F18BFFB1A43F0010318473B
:100120000423000024230000103A24BF78C878C1BB
:10013000FAD8520724BF30C830C144BF04680C60ED
:10014000704700000023002400250026103A28BF35
:1001500078C1FBD8520728BF30C148BF0B60704739
:10016000642900F08180752900F07E80732900F0F9
:100170004082002070471FB51FBD10B510BD00F0B4
:100180003CFA1146FFF7F7FF01F0BEFF00F05AFA04
:1001900003B4FFF7F2FF03BC00F062FA094880479E
:1001A00009480047FEE7FEE7FEE7FEE7FEE7FEE759
:1001B000FEE7FEE7FEE7FEE704480549054A064B71
:1001C00070470000351F0008ED0000080001002006
:1001D0000007002000030020000300200FB47CB5BE
:1001E0000C0009AA009001D02044401E084B7B441B
:1001F00069460190089800F0CAF905461CB1002034
:10020000694600F0D7F928467CBC5DF814FB000075
:10021000CD03000070B50C460546012A05D02878AC
:10022000800600D5EA69002302E0012305E05B1C9B
:10023000934202D2E05C0028F9D1A869E618C01AFE
:10024000A861286A184428622846AFF3008004E0B9
:10025000D5E9012114F8010B9047B442F8D32846A0
:10026000AFF3008070BD00002DE9F0410646002488
:1002700010687529314616A510D0AFF3008000280C
:1002800002DA404213A507E031688A0701D512A5BA
:1002900002E0490704D511A5012401E0AFF3008075
:1002A00000210A2206F1240709E0B0FBF2FCB0FBB2
:1002B000F2F302FB1C00303078541846491C002829
:1002C000F3D123462A463046BDE8F04100F001B99B
:1002D000000000002D0000002B00000020000000A6
:1002E0002DE9F0410F460546002028622846E968BE
:1002F000884770B3252805D0D5E901219047286AA1
:10030000401CF2E7E9682846002688476C28044626
:100310000AD0682C08D04C2C35D06A2C31D0742CE3
:1003200031D07A2C2FD016E0E96806462846884757
:10033000B042044608D16C2E23D04FF48066284684
:10034000E9688847044606E06C2E03D04FF48076B7
:1003500001E01EE04026E4B1A4F14100192802D8D2
:10036000203446F400663A46214628462E60FFF7C0
:10037000F7FE60B1012808D0FF1D27F007070837F6
:10038000B4E78026DBE70026D9E73F1DAEE720462D
:10039000B2E7286ABDE8F08110B5203AC0F00B80C2
:1003A000B1E81850203AA0E81850B1E81850A0E879
:1003B0001850BFF4F5AF5FEA027C24BFB1E81850D3
:1003C000A0E8185044BF18C918C0BDE810405FEA43
:1003D000827C24BF51F8043B40F8043B08BF7047BF
:1003E000D20728BF31F8023B48BF11F8012B28BFC4
:1003F00020F8023B48BF00F8012B70474FF0000285
:1004000000B5134694469646203922BFA0E80C500A
:10041000A0E80C50B1F12001BFF4F7AF090728BFE5
:10042000A0E80C5048BF0CC05DF804EB890028BF61
:1004300040F8042B08BF704748BF20F8022B11F08A
:10044000804F18BF00F8012B704700004FF0013CAF
:1004500050F8042B51F8043B9A4221D1A2EB0C0333
:10046000934313EACC1317D150F8042B51F8043BF3
:100470009A4215D1A2EB0C03934313EACC130BD190
:1004800050F8042B51F8043B9A4209D1A2EB0C031B
:10049000934313EACC13DBD04FF00000704700BF4A
:1004A000D01A01BAB1FA81F101F0180122FA01F073
:1004B000CB40C1F12001DBB2C0B2C01A2CFA01F36B
:1004C000D11A914311EAC311E6D1704770477047C2
:1004D00070472DE9F0470D4699469246044600F1D3
:1004E00024080168880604D5E06921F01001216024
:1004F00000E00120A84201DD471B00E00027A169C0
:100500007A1902EB0900081AA0612078C00602D40B
:100510002046AFF30080002608E0D4E901211AF854
:1005200006009047206A401C761C20624E45F4DB92
:100530002078C0060AD52046AFF3008006E0D4E953
:10054000012130209047206A401C2062381EA7F10C
:100550000107F4DC07E0D4E9012118F80500904711
:10056000206A401C2062281EA5F10105F3DC20460C
:10057000AFF300802078000602D50220BDE8F087A6
:100580000120FBE701694A1C02610878704700B549
:100590008FB0CDE901310021059105497944CDE9BC
:1005A000031011466846FFF79BFE0FB000BD000028
:1005B000E5FFFFFF0A6802F8010B0A607047D1E906
:1005C00000239A4202D2531C0B601070704710B582
:1005D000436913B1AFF3008001E0FFF71BFE012078
:1005E00010BD127800F124010A7000224A70012225
:1005F000EDE711684FF0FF32E9E7754600F02CF89F
:10060000AE4605006946534620F00700854618B0FF
:1006100020B5FFF7D1FDBDE820404FF000064FF0B8
:1006200000074FF000084FF0000B21F00701AC4627
:10063000ACE8C009ACE8C009ACE8C009ACE8C00946
:100640008D46704710B50446AFF300802046BDE8E4
:100650001040FFF79DBD000000487047A00000203B
:1006600001491820ABBEFEE72600020070470000DB
:1006700070B5044600688168C943C90717D181680D
:1006800021F00101816000F06BFC05460AE000BF2B
:1006900000F066FC401B022804D920688068C04333
:1006A000C00706D020688068C043C007F0D0002093
:1006B00070BDA06A40F01000A062E06A40F0010046
:1006C000E062012070BD0000F8B5002604460096E7
:1006D00000688168C943C9072DD0816841F00101D4
:1006E0008160164816490068B0FBF1F000E0401E3A
:1006F00000900028FBD100F033FC054616E000BF57
:1007000000F02EFC401B022810D920688068C043EE
:10071000C0070BD0A06A40F01000A062E06A40F071
:100720000100E06284F824600120F8BD2068806840
:10073000C043C007E4D10020F8BD00002400002021
:1007400040420F0005480068002805D000224FF401
:100750004051034800F0FFBB70470000000000203C
:10076000000C014000F00EF8FEE7704740F239310E
:10077000484340F2FF7101EB800040F6FF71B0FB8F
:10078000F1F07047024901204860FFF7DBBF00002D
:1007900000000020202000F0DDBAFFF7F3FF72B662
:1007A000FEE70000F8B500250446009590F8240007
:1007B00001280BD0012084F824002046FFF758FFC1
:1007C0002046FFF781FF060002D050E00220F8BD6E
:1007D000A06A20F4885040F00200A062022000F0DD
:1007E0005DFC25490968B1FBF0F0400000E0401EC7
:1007F00000900028FBD12068816841F008018160E9
:1008000000F0AEFB074608E000F0AAFBC01B0A2878
:1008100003D920688068000715D420688068000725
:10082000F2D42068816841F00401816000F098FBF7
:10083000074612E000F094FBC01B0A280DD920687F
:100840008068400709D5A06A20F0020040F010003F
:10085000A06284F824500120F8BD20688068400719
:10086000E8D4A06A20F0020040F00100A06284F801
:1008700024503046F8BD000024000020F8B50024C4
:10088000009490F824202546012A12D0012280F8F5
:1008900024204A681F23072A0DD20668776B521E50
:1008A00002EB820293409F430B6893401F437763A0
:1008B00019E00220F8BD06680D2A0AD2376BD21F54
:1008C00002EB820293409F430B6893401F433763C0
:1008D00009E0F76A0D3A02EB820293409F430B68EE
:1008E00093401F43F7620A68072306680A2A0AD35F
:1008F000F7680A3A02EB420293409F438B689340A9
:100900001F43F76008E0376902EB420293409F43C0
:100910008B6893401F4337610A68102A01D0112A5F
:1009200020D1124B02689A4217D193681B0219D446
:10093000936843F4000393600968102912D10C49AD
:100940000C4A0968B1FBF2F101EB8101490000E0BA
:10095000491E00910029FBD104E0816A41F0200189
:100960008162012480F824502046F8BD0024014013
:100970002400002040420F000068C06C7047000057
:100980002DE9F0414FF0000704003D467ED0A06AFB
:10099000002628B9E66284F82460204600F07EF83C
:1009A0002046FFF765FEA16AC90600D420B1A06AFF
:1009B00040F01000A06269E0A16A21F4885141F082
:1009C0000201A1626268E169237B0A4347EA4301AD
:1009D0000A43A1684FF48077B94209D0012907D0B2
:1009E0005FF0000194F814C0BCF1010F02D00AE0DE
:1009F0003946F7E7F3B1A36A43F02003A362E36A41
:100A000043F00103E3622368D3F804C02CF4694C7B
:100A10004CEA010CC3F804C021688B68DFF870C091
:100A200003EA0C0313438B60A168B9420BD0012980
:100A300009D00CE0DFF85CC0A3690CEB43330B4337
:100A400043F40061DFE7218A0D05A5F580152168D3
:100A5000CB6A23F470032B43CB62216889680E4B69
:100A60001940914208D1E662A16A21F0020141F0E9
:100A70000101A162BDE8F081A06A20F0020040F00F
:100A80001000A062E06A40F00100E0620120F1E79E
:100A9000FDF7E1FF00E0FFFFFE0E1FFF00B585B090
:100AA0000021009101910291039100680E49884252
:100AB00017D10E48816941F400718161816901F4A7
:100AC00000710491816941F0040181618069694686
:100AD00000F004000490032000900190044800F00E
:100AE00045F905B000BD000000240140001002409F
:100AF000000801402DE9F84300270D460446009701
:100B000000F02EFA804620688168C90508D5A06AE1
:100B100040F02000A06284F824700120BDE8F88332
:100B20004168C90503D4C06A10F4700F2AD00220AE
:100B300000F0B4FA3B490968B1FBF0F6206803699C
:100B400039490B424FEA61014FEAA1121FD1C36834
:100B50004FEA611C13EA0C0F19D103690B4225D12E
:100B6000C068104222D1142023E0681C0AD02DB1A5
:100B700000F0F6F9A0EB0800A84203D9206800684D
:100B8000800725D5206800688007EED52DE0036931
:100B90000B4202D1C168114206D0026923490A42C0
:100BA00006D1C068084203D1542002E0292000E0A9
:100BB000FC204643009816E0681C11D02DB100F0CF
:100BC000CFF9A0EB0800A8420AD90098B04207D29A
:100BD000A06A40F00400A06284F8247003209DE71E
:100BE0000098401C0090B042E6D321686FF01200DC
:100BF0000860A06A40F40070A06220688068C0F3BA
:100C0000424007280CD1207B50B9A06A20F48070A4
:100C1000A062A06AC00403D4A06A40F00100A062F0
:100C200000207BE7240000202449922449922400DC
:100C300070B5044690F8240001280DD0012084F8F6
:100C400024002046FFF740FD02004FF0000005D0D1
:100C500084F82400104670BD022070BDA16A40F2E5
:100C60000123994341F48071A1621F4D23681F49FC
:100C7000AB4218D10E6816F4702F14D0A66A46F451
:100C80008016A6620E68760505D5A66A26F400567B
:100C900046F48056A662A66AF6040AD5E66A26F0ED
:100CA0000606E66206E0A66A26F48016A6625E687C
:100CB000E9E7E06284F824006FF002001860206821
:100CC0008368C3F34243072B05D1A84208D10968C2
:100CD00011F4702F04D0816841F480118160B9E76C
:100CE000816841F4A001F9E7002801400424014093
:100CF00010B5044690F82400012807D0012084F89C
:100D000024002046FFF7B4FC10B107E0022010BD1C
:100D1000A16A21F4885141F00101A162002184F807
:100D2000241010BD70B5044600F01AF90546601C89
:100D300002D004480078044400F012F9401BA0429D
:100D4000FAD370BD18000020202801D1FFF71ABD8A
:100D500070470000044910B50A68024202D00860DA
:100D6000FFF7F2FF10BD0000140401402DE9F84F19
:100D7000DFF8B8910024A9F1040B23460F2709F1ED
:100D8000040AABF1040EC9E00125A5402A40AA429D
:100D90007DD1674ED1F804C0ACEB0608B44532D023
:100DA00014DCBCF1030F3AD009DCBCF1000F2AD0EF
:100DB000BCF1010F1CD0BCF1020F31D11DE0BCF120
:100DC000110F17D0BCF1120F2AD119E0B8F5881F06
:100DD00019D006DCB8F5803F15D0B8F5801F1FD1BB
:100DE00011E0B8F5001F0ED0B8F5041F18D10AE0C5
:100DF000CB6815E0CB681B1D12E0CB6808330FE011
:100E0000CB680C330CE08B682BB1012B4FF008033F
:100E100003D0456104E0042302E0056100E0002303
:100E2000FF2A01D8064601E000F104064FEA8405D6
:100E300001D9A5F12005D6F8008007FA05FC28EABB
:100E40000C0803FA05F548EA0508C6F800804D6865
:100E5000ED0062D5374DAE6946F00106AE61AD6971
:100E600024F0030605F001050095334D06EB050C53
:100E7000DCF80850A607360F07FA06F825EA080539
:100E8000DFF8B880404503D14FF0000817E044E098
:100E9000DFF8AC80404502D14FF001080FE0DFF8E9
:100EA000A480404502D14FF0020808E0DFF89880A6
:100EB000404502D14FF0030801E04FF0040808FA62
:100EC00006F848EA0508CCF808804D68D9F80060B3
:100ED000ED024D4601D5164300E096432E604D6865
:100EE000DAF80060AD02554601D5164300E096439E
:100EF0002E604D68DBF80060AD035D4601D51643FA
:100F000000E096432E604D68DEF80060ED03754604
:100F100001D5164300E096432E60641C0D682A46F6
:100F2000E5407FF431AFBDE8F88F000008040140D0
:100F300000001110001002400000014000080140B4
:100F4000000C01400010014000140140806808407E
:100F500000D0012070470AB1016170470904FBE726
:100F6000014880687047000018000020024881682E
:100F7000027811448160704718000020074810B5BE
:100F8000016841F010010160032000F075F80F20A6
:100F900000F006F800F024F8002010BD0020024008
:100FA00070B50D4D04464FF47A712878B1FBF0F01E
:100FB0000A490968B1FBF0F000F0A4FB48B9102C15
:100FC00007D200222146501E00F036F800206C6047
:100FD00070BD012070BD000018000020240000201A
:100FE0000C4808B5816941F001018161816901F016
:100FF00001010091C16941F08051C161C06900F0F7
:10100000805000900448416821F0E06141F0806127
:10101000416008BD0010024000000140002809DBCB
:1010200000F01F02012191404009800000F1E02002
:10103000C0F8001170470000F0B40E4B1B680C465E
:10104000C3F30223C3F10705042D00D90425191D9C
:10105000072901D2002300E0DB1E012606FA05F174
:10106000491E214099409E40761E16403143F0BCF7
:1010700001F03AB80CED00E0064900F007020868FC
:101080004FF6FF03184040EA0220034A104308606D
:10109000704700000CED00E00000FA0510B50146B5
:1010A0000020234C012922D0022939D010291DD13A
:1010B00061682268D20119D51E48C1F38342C90371
:1010C000805C0AD561681B4AC1F34041921E515CA5
:1010D000194AB2FBF1F1484301E0184948436168FD
:1010E000490203D440000321B0FBF1F010BD226A95
:1010F000C2F30121012903D1920701D5C80310BD14
:10110000022905D1626A920702D549F6404010BD16
:101110000329FCD121688903F9D54FF2244010BD81
:1011200000F02AF96168C1F38131491C4900DBE70D
:10113000001002409822000800127A0000093D00C9
:101140002DE9F84305460078354CC00754D0E069D6
:101150000026C00008D4E06940F08050E061E069FA
:10116000012600F0805000902E480168C90512D475
:101170000168804641F480710160FFF7F1FE074687
:1011800005E000BFFFF7ECFEC01B642823D8D8F8A9
:101190000000C005F6D5206A10F4407021D0A9885F
:1011A00001F4407181421CD0206A1F49012220F4C1
:1011B00040700A6000220A602062C00711D0FFF769
:1011C000CFFE074641F2883808E000BFFFF7C8FEAF
:1011D000C11B414502D90320BDE8F883206A80077E
:1011E000F4D5206A696820F44070084320621EB17B
:1011F000E06920F08050E0612878800705D56068BC
:10120000A96820F44040084360602878C00605D5EE
:101210006068E96820F48000084360600020DBE734
:101220000010024000700040400442422DE9F047A7
:101230000F46050061D0434E306800F00700B84209
:1012400009D2306820F0070038433060306800F081
:101250000700B84251D128683B4C810712D540079E
:1012600003D5606840F4E06060602878000703D52B
:10127000606840F4605060606068A96820F0F00029
:10128000084360602878C00728D06868012810D01B
:101290002168022810D0890700292EDA616821F020
:1012A000030101436160FFF75BFE804641F288392C
:1012B0000DE021688903EFE78901EDE7FFF750FEB4
:1012C000A0EB0801494502D90320BDE8F08760681A
:1012D000696800F00C00B0EB810FEFD1306800F0CE
:1012E0000700B8420BD9306820F00700384330605F
:1012F000306800F00700B84201D00120E5E7287807
:10130000400705D56068E96820F4E0600843606044
:101310002878000706D56068296920F4605040EA03
:10132000C100606000F038F86168084AC1F3031139
:10133000515CC8400649086006480068FFF730FE67
:101340000020C2E70020024000100240A82200084E
:10135000240000201C00002004480549006849685A
:10136000044AC1F30221515CC840704724000020A8
:1013700000100240B8220008044805490068496886
:10138000044AC1F3C221515CC840704724000020C8
:1013900000100240B82200080E4A51680E4801F0C1
:1013A0000C03042B11D0082B0FD10C48C1F383433D
:1013B000C903C05C0AD55168084AC1F34041921E76
:1013C000515C054A5043B0FBF1F070470449484373
:1013D000704700000010024000127A0086220008C8
:1013E00000093D002DE9F84F040070D02078C04D71
:1013F000C00749D06868C0F38100012807D0686839
:10140000C0F38100022809D16868C00306D52868A6
:10141000800339D560680028E7D035E06068B0F512
:10142000803F0BD010B1B0F5A02F11D0286820F468
:1014300080302860286820F4802002E0286840F48A
:1014400080302860606890B1FFF78AFD06460AE0A8
:10145000286840F480202860F0E700BFFFF780FD97
:10146000801B642873D828688003F7D50CE0FFF749
:1014700077FD064605E000BFFFF772FD801B64287C
:10148000F0D828688003F7D420789A4E80074FF070
:1014900001094FF0000839D5686810F00C0F07D02B
:1014A0006868C0F38100022809D16868C00306D4C7
:1014B0002868800714D52069012808D110E0206928
:1014C000B0B1C6F80090FFF74BFD074605E00AE112
:1014D000FFF746FDC01B0228C4D828688007F7D54F
:1014E0002868616920F0F80040EAC10028600DE03A
:1014F000C6F80080FFF734FD074604E0FFF730FD33
:10150000C01B022823D828688007F7D4207800075A
:101510002CD57948A169D9B1C0F80090FFF720FD1A
:10152000074604E0FFF71CFDC01B02280FD8686ABD
:101530008007F7D571484FF4FA510068B0FBF1F01D
:10154000009000BF0098411E0091FAD20EE080E0AA
:10155000C0F80080FFF704FD074604E0FFF700FD38
:10156000C01B022875D8686A8007F7D42078400726
:1015700060D5E8690027C00008D4E86940F08050D1
:10158000E861E869012700F0805000905C4801683C
:10159000C90513D40168834641F480710160FFF7E7
:1015A000DFFC824606E000BFFFF7DAFCA0EB0A0092
:1015B00064284ED8DBF80000C005F5D5E0680128A6
:1015C0000AD008B1052813D0286A20F0010028624B
:1015D000286A20F0040002E0286A40F00100286236
:1015E000E06841F2883B98B1FFF7BAFC82460BE015
:1015F000286A40F004002862EEE700BFFFF7B0FC65
:10160000A0EB0A0159455AD8286A8007F6D50CE0A4
:10161000FFF7A6FC824605E0FFF7A2FCA0EB0A015B
:1016200059454CD8286A8007F6D41FB1E86920F0E4
:101630008050E861E06988B36968C1F381010229DB
:1016400044D00228C6F8608004D0FFF789FC044625
:1016500038E034E0FFF784FC074604E0FFF780FC45
:10166000C01B02282BD828688001F7D4206AB0F567
:10167000803F05D16868A16820F4003008436860A5
:10168000D4E908010843696821F4741108436860CB
:10169000C6F86090FFF764FC044606E025E000BF52
:1016A000FFF75EFC001B022809D828688001F7D5E7
:1016B0001BE000BFFFF754FC001B022802D90320E7
:1016C000BDE8F88F28688001F4D40EE00128F7D037
:1016D0006868226A00F48031914204D1616A00F4A2
:1016E0007010884201D00120EAE70020E8E70000FE
:1016F00000100240000042428004424224000020C8
:101700000070004010B5401EB0F1807F01D3012071
:1017100010BD4FF0E02460610F21601700F0E4FC81
:101720000020A06107202061002010BD70B50400DA
:1017300004D094F84100002510B106E0012070BDEE
:1017400084F84050204600F023F8242084F841001B
:101750002068C16821F40051C160204600F012FCED
:101760002068016921F4904101612068416921F0FC
:101770002A0141612068C16841F40051C16065647B
:10178000202084F8410084F842006563002070BD89
:1017900030B585B00024009401940294039400684D
:1017A0001449884224D11448816941F480418161FF
:1017B000816901F480410491816941F004018161F2
:1017C00080690E4D00F0040004904FF4007000900A
:1017D000022001900320039069462846FFF7C6FACD
:1017E0002815CDE90004694628460294FFF7BEFAA1
:1017F00005B030BD00380140001002400008014033
:101800002DE9F843044690F84100984616460D46E7
:10181000202802D00220BDE8F88385B17EB10020E7
:101820006064212084F84100FFF79AFBA68481467A
:10183000E684A0682027B0F5805F02D003E0012095
:10184000E9E7206910B12E4600250EE000260CE0E5
:101850008021204600F0F2FBA8B9C6B116F8010BB2
:1018600021684860E08C401EE084E08C4B464FF0DD
:101870000002CDF800800028EAD14FF04001204658
:1018800000F0DCFB40B184F841700320C3E735F879
:10189000020BC0F30800E3E784F841700020BAE7C8
:1018A000FEF770FFFEE700003EB5002410480094EC
:1018B000019402940D49846001600473047501254C
:1018C00005614FF460214460C161FFF759F848B9E0
:1018D00007200094CDE9015069460548FEF7CEFF88
:1018E000002801D0FEF759FF3EBD00000024014052
:1018F0002800002070B586B000242548009401948B
:1019000002940394816941F004018161816901F0CD
:1019100004010491816941F008018161816901F04C
:1019200008010491816941F0010181618069194ECA
:1019300000F001004FF44055049000222946304643
:10194000FFF709FB0220CDE9024000950125694619
:1019500001953046FFF70AFA0F48056010208DE820
:1019600031000E4C69462046FFF700FA2020009017
:101970000B48019069462046FFF7F8F9002211460E
:101980001720FFF759FB1720FFF748FB06B070BD83
:1019900000100240000C014000000020000801403F
:1019A00000002110FEF7EEFEFEE7FEF7EBFEFEE77D
:1019B00070470000FEB50646002014460D46009014
:1019C0000190029000F072FA70B90120CDE9006038
:1019D0000720029069461C48FEF750FF08B11BA083
:1019E000FEBD00F063FA08B11DA0FEBD1648FFF76A
:1019F0001FF938B11448FFF77BF908B11CA0FEBDF0
:101A000022A0FEBD14211048FFF774F800280E48EC
:101A100006D0FFF76DF908B121A0FEBD27A0FEBDDD
:101A2000FEF7AAFF28602068401C20600648FFF7E8
:101A30005FF908B125A0FEBD2868B0F5805F01D32D
:101A400026A0FEBD2AA0FEBD280000204144435F21
:101A5000434F4E4649475F4641494C4544000000CC
:101A600053544F505F52455155455354454400001F
:101A70004144435F53544152545F414E445F535479
:101A80004F505F4641494C45440000004144435F8C
:101A900053544152545F4641494C454400000000B4
:101AA0004144435F504F4C4C5F414E445F53544F51
:101AB000505F4641494C4544000000004144435FAB
:101AC000504F4C4C5F4641494C4544004144435FB4
:101AD00053544F505F4641494C4544004144435F95
:101AE00052414E47455F4641494C45440000000085
:101AF0004F4B0000F0B58BB02C216846FEF77EFC02
:101B0000FFF72EFA05464FF0FF3440A0CDE909401B
:101B10004FF4805000F088F878B1142000F0CAFA31
:101B200058B104AA174669460020FFF743FF3BA1BE
:101B30000A90FEF78BFC18B13EE0FEF703FE5BE077
:101B4000012607960098FEF711FE029005983A4686
:101B5000401C0590012001A9FFF72CFF2FA10A903E
:101B6000FEF774FC40BB08960198FEF7FFFD03905A
:101B70000598DDE90267401C0023DFF8A4C0224677
:101B8000194605900CEB0110D0F800E0B6450CDCCE
:101B9000D0F804E0B64508DBD0F808E0BE4504DC28
:101BA000C068B84201DB0A465B1C491C0929E9DB15
:101BB000012B00D02246099200F078F918B113A049
:101BC000CDE90940B9E715A10A98FEF73FFC0028C6
:101BD000B3D107980028B0D008980028ADD0099854
:101BE0000028AAD14FF4005000F01EF80028E6D0DB
:101BF00000F05CF90028E2D1FFF7B2F9401B069033
:101C0000684600F035F80BB0F0BD000053544F505B
:101C10005F52455155455354454400004F4B000019
:101C2000B42100087047000070B505460026FEF795
:101C300089FDB5F5805F04D0B5F5005F01D00020C7
:101C400070BD052000F036FA0028F9D0EFF31084BB
:101C500072B600F02BF928B9012229460348FFF794
:101C60007AF9012684F31088304670BD000C0140DB
:101C7000F0B504463E48FBB06BAE2EC886E82E0099
:101C80000EC86FAD85E80E000EC872AD85E80E0077
:101C90000EC875AD85E80E0007C878AB35A583E89A
:101CA0000700636A002B08DB34A210216BA8FEF743
:101CB00095FA606A002853D032A5E06958B133A282
:101CC0000C216FA82368FEF789FA30A20C2175A8B1
:101CD000A368FEF783FA206A58B12CA20C2172A8DF
:101CE0006368FEF77BFA29A20C2178A8E368FEF767
:101CF00075FA274F4FF480513846FFF727F901282E
:101D000030D024A64FF400513846FFF71FF90128C0
:101D10002AD020A0A269A16ACDE90720CDE90961F6
:101D2000D4E9043203AF78A972A887E80F0075A838
:101D30006FA90095CDE901104FF4C0746BAB164A42
:101D400021460BA8FEF74AFAA04207D282B26423CA
:101D50000BA91248FFF754FD002807D0FEF71DFD20
:101D60000FA5AAE710A6CDE70FA0D3E77BB0F0BD83
:101D700044220008554E4B4E4F574E0044495625BD
:101D8000640000004641554C54000000256C75006D
:101D9000000C01404F464600782300085800002000
:101DA0004E4F524D414C00004F4E00002DE9F04186
:101DB00090B000F07BF801272A4C002698B1FEF77E
:101DC000E1FCA660E06870B93C2227A16846FEF7F6
:101DD000E3FA64233A2269463248FFF711FD08B15D
:101DE000FEF7DBFCE760DFF8C08010214046FFF71C
:101DF000ADF80546FFF7B4F801461A4810300278EE
:101E0000AA4201D0057041604278AA4219D04268C6
:101E1000891A142915D345709DB920214046FFF732
:101E200095F801280DD1EFF3108572B620214046B8
:101E3000FFF78CF8012802D16660C4E9027685F3C9
:101E40001088A068002809D000F030F8002805D1DB
:101E5000A66010B0BDE8F041FFF74CBE10B0BDE881
:101E6000F0810000000000204556454E543D53547B
:101E70004F502052554E5F504F5745523D4F4646AA
:101E800020544553545F504F5745523D4F464620CE
:101E90004D4F44453D574149545F52455445535475
:101EA0000D0A00005800002000080140064810B547
:101EB000406830B920210548FFF748F808B10020F4
:101EC00010BD012010BD00000000002000080140EE
:101ED000FFF74CB830B593B028216846FEF78EFA6C
:101EE00014210AA8FEF78AFA002401200F94022583
:101EF000049000951020119405901094129407946A
:101F00006846FFF76FFA88B90F20CDE90A040C94F0
:101F10000D9400210AA80E94FFF788F930B90FA894
:101F20000F951194FFF70CF9002801D0FEF735FC4E
:101F300013B030BD704701680C3151E8002F22F416
:101F4000907241E80023002BF5D10168143151E86B
:101F5000002F22F0010241E80023002BF5D1016B94
:101F6000012909D101680C3151E8002F22F010023B
:101F700041E80023002BF5D1202180F842100021F8
:101F80000163704770B5044600680169E26821F496
:101F90004051114301612169A06808436169084308
:101FA0002168CA6841F20C639A430243CA60206800
:101FB0004169A26921F44071114341611E492068C1
:101FC000884202D1FFF7D8F901E0FFF7C5F900EB2D
:101FD000C00101EB0012606864218000B2FBF0F3E5
:101FE000B3FBF1F36FF018067343B2FBF0F5B2FBED
:101FF000F0F605EB8305322303EB0515B5FBF1F590
:10200000B6FBF1F605F0F00505EB0615B2FBF0F6B0
:10201000B2FBF0F0B0FBF1F06FF01802504306EBAA
:10202000800003EB0010B0FBF1F0216800F00F001E
:102030002844886070BD0000003801402DE9F84355
:10204000984617460D460446089E24E0701C22D090
:10205000FEF786FFA0EB0800B0421AD8CEB1206888
:10206000C168490717D5802D15D0402D13D00168C0
:10207000C94309070FD40168002540680090204635
:10208000FFF759FF0820606484F840500120BDE844
:10209000F8830320FBE72068006835EA000004D0DD
:1020A0000020B842D2D00020F1E70120F9E7FEF786
:1020B00069FBFEE770B50546FEF752FF044605E0F2
:1020C000FFF7F4FE50B90120FEF72CFEFEF748FFA3
:1020D000001BA842F4D3FFF7E9FE18B1FEF752FB4C
:1020E000002070BD012070BD0907090E002804DB27
:1020F00000F1E02080F80014704700F00F0000F1BC
:10210000E02080F8141D7047AEB0FEF737FFFFF7F0
:10211000F1FBFFF7DFFEFFF7C7FB21481F490C2249
:1021200001604FF4E131416000218160C160C0E98C
:1021300004128161C161FFF7F9FA80B96C22194973
:102140006846FEF729F94C2217491BA8FEF724F927
:102150006423692269461248FFF752FB08B1FEF773
:102160001CFB0F483038FEF71DFB30B164234922B9
:102170001BA90B48FFF744FBF1E710210B48FEF7C2
:10218000E5FE0B4C20706070FEF7EAFEC4F8040018
:10219000FFF70CFE0120FEF7C5FDF9E7003801400E
:1021A00058000020C02200082C230008000801402D
:1021B00010000020A6010000E801000079030000E3
:1021C000A0030000FBFFFFFF05000000D903000093
:1021D000F7030000D9030000F7030000D903000053
:1021E000F70300002B030000570300002B0300003F
:1021F00057030000FBFFFFFF050000002B0300005A
:10220000570300002B0200006D0200005E03000077
:10221000870300001C010000560100009703000026
:10222000BC0300000B010000420100005E0300003F
:10223000870300004F020000930200009703000094
:10224000BC030000554E4B4E4F574E00000000009F
:10225000000000004E4100000000000000000000EF
:102260004E41000000000000000000004E41000050
:1022700000000000000000004E41000000000000CF
:1022800000000000010202030405060708090A0B0A
:102290000C0D0E0F101001020203040506070809B9
:1022A0000A0B0C0D0E0F10100000000000000000C3
:1022B00001020304060708090000000001020304EC
:1022C000424F4F543D4449565F504F5745525F323D
:1022D00030323631303131204D4F44453D4F4E453F
:1022E0005F53484F5420565245465F4D563D333359
:1022F0003030204144435F424954533D3132204203
:102300004155443D3131353230302052554E5F50C9
:102310004F5745523D4F464620544553545F504F0A
:102320005745523D4F46460D0A0000005354415454
:10233000453D554E4B4E4F574E204552524F523D04
:102340004144435F43414C4942524154494F4E5FDF
:102350004641494C45442052554E5F504F574552D7
:102360003D4F464620544553545F504F5745523DCC
:102370004F46460D0A00000053544154453D257315
:10238000204B494E443D25732056425F5241573DF4
:1023900025732056425F4D563D25732056415F52AE
:1023A00041573D25732056415F4D563D25732046CC
:1023B0004541545552455F52454144533D256C7546
:1023C000204144435F434F4E56455253494F4E536D
:1023D0003D256C7520454C41505345445F4D533D60
:1023E000256C752052554E5F504F5745523D257311
:1023F00020544553545F504F5745523D257320504C
:102400004F5745525F534F555243453D4750494FF3
:102410005F4C4556454C204552524F523D25730D59
:102420000A000000442400080000002028000000EA
:10243000280100086C24000828000020D8060000AD
:10244000440100080000000000000000010000003E
:102450000000000001010000000000000100000079
:0C246000100000000000000000127A00D4
:04000005080000ED02
:00000001FF
