:020000040800F2
:10000000E806002091010008990100089B01000802
:100010009D0100089F010008A101000800000000E8
:10002000000000000000000000000000A301000824
:10003000A501000800000000A701000871160008D3
:10004000AB010008AB010008AB010008AB010008E0
:10005000AB010008AB010008AB010008AB010008D0
:10006000AB010008AB010008AB010008AB010008C0
:10007000AB010008AB010008AB010008AB010008B0
:10008000AB010008AB010008AB010008AB010008A0
:10009000AB010008AB010008AB010008AB01000890
:1000A000AB010008AB010008AB010008AB01000880
:1000B000AB010008AB010008AB010008AB01000870
:1000C000AB010008AB010008AB010008AB01000860
:1000D000AB010008AB010008AB010008AB01000850
:1000E000AB010008AB010008AB01000800F002F80A
:1000F00000F03FF80AA090E8000C82448344AAF183
:100100000107DA4501D100F034F8AFF2090EBAE880
:100110000F0013F0010F18BFFB1A43F0010318473B
:10012000D4170000F4170000103A24BF78C878C133
:10013000FAD8520724BF30C830C144BF04680C60ED
:10014000704700000023002400250026103A28BF35
:1001500078C1FBD8520728BF30C148BF0B60704739
:10016000752900F05180002070471FB51FBD10B5E4
:1001700010BD00F0A8F91146FFF7F7FF01F048FBAA
:1001800000F0C6F903B4FFF7F2FF03BC00F0CEF9AC
:100190000948804709480047FEE7FEE7FEE7FEE71B
:1001A000FEE7FEE7FEE7FEE7FEE7FEE70448054957
:1001B000054A064B7047000075160008ED00000860
:1001C000E8000020E8060020E8020020E802002005
:1001D0000FB47CB50C0009AA009001D02044401E49
:1001E000084B7B4469460190089800F04CF905469D
:1001F0001CB10020694600F059F928467CBC5DF826
:1002000014FB0000D10200002DE9F0410646002455
:1002100010687529314616A510D0AFF3008000286C
:1002200002DA404213A507E031688A0701D512A51A
:1002300002E0490704D511A5012401E0AFF30080D5
:1002400000210A2206F1240709E0B0FBF2FCB0FB12
:10025000F2F302FB1C00303078541846491C002889
:10026000F3D123462A463046BDE8F04100F0ADB850
:10027000000000002D0000002B0000002000000006
:100280002DE9F0410F460546002028622846E9681E
:10029000884770B3252805D0D5E901219047286A01
:1002A000401CF2E7E9682846002688476C28044687
:1002B0000AD0682C08D04C2C35D06A2C31D0742C44
:1002C00031D07A2C2FD016E0E968064628468847B8
:1002D000B042044608D16C2E23D04FF480662846E5
:1002E000E9688847044606E06C2E03D04FF4807618
:1002F00001E01EE04026E4B1A4F14100192802D833
:10030000203446F400663A46214628462E60FFF720
:1003100027FF60B1012808D0FF1D27F00707083725
:10032000B4E78026DBE70026D9E73F1DAEE720468D
:10033000B2E7286ABDE8F08110B5431C02E010F86E
:10034000011B71B18107FAD14FF0013202C88C1A3A
:100350008C4314EAC211F9D0C01A0A0603D0C01E99
:1003600010BDC01A10BD0A0401D0801E10BD0902C4
:10037000FCD0401E10BD4FF0000200B5134694465D
:100380009646203922BFA0E80C50A0E80C50B1F1ED
:100390002001BFF4F7AF090728BFA0E80C5048BF01
:1003A0000CC05DF804EB890028BF40F8042B08BF9F
:1003B000704748BF20F8022B11F0804F18BF00F89B
:1003C000012B70477047704770472DE9F0470D4685
:1003D00099469246044600F124080168880604D52F
:1003E000E06921F01001216000E00120A84201DD58
:1003F000471B00E00027A1697A1902EB0900081ADF
:10040000A0612078C00602D42046AFF30080002609
:1004100008E0D4E901211AF806009047206A401C40
:10042000761C20624E45F4DB2078C0060AD52046B3
:10043000AFF3008006E0D4E9012130209047206A24
:10044000401C2062381EA7F10107F4DC07E0D4E964
:10045000012118F805009047206A401C2062281EE0
:10046000A5F10105F3DC2046AFF3008020780006FB
:1004700002D50220BDE8F0870120FBE701694A1C94
:1004800002610878704700B58FB0CDE901310021D5
:10049000059105497944CDE9031011466846FFF7F7
:1004A000EFFE0FB000BD0000E5FFFFFF0A6802F895
:1004B000010B0A607047D1E900239A4202D2531C13
:1004C0000B6010707047754600F02CF8AE460500C2
:1004D0006946534620F00700854618B020B5FFF75F
:1004E00065FEBDE820404FF000064FF000074FF0DA
:1004F00000084FF0000B21F00701AC46ACE8C00942
:10050000ACE8C009ACE8C009ACE8C0098D4670474A
:1005100010B50446AFF300802046BDE81040FFF759
:1005200031BE0000004870478800002001491820B3
:10053000ABBEFEE7260002007047000070B504461F
:1005400000688168C943C90717D1816821F001019A
:10055000816000F09BFC05460AE000BF00F096FCBD
:10056000401B022804D920688068C043C00706D019
:1005700020688068C043C007F0D0002070BDA06A2A
:1005800040F01000A062E06A40F00100E06201204B
:1005900070BD0000F8B5002604460096006881682A
:1005A000C943C9072DD0816841F001018160164817
:1005B00016490068B0FBF1F000E0401E00900028F2
:1005C000FBD100F063FC054616E000BF00F05EFCC6
:1005D000401B022810D920688068C043C0070BD098
:1005E000A06A40F01000A062E06A40F00100E06202
:1005F00084F824600120F8BD20688068C043C007EB
:10060000E4D10020F8BD00000C00002040420F00A3
:1006100010B586B00024174802940394816941F014
:1006200004018161816901F004010491816941F44F
:10063000007181618069694600F4007004900320B4
:10064000009001900C4800F031FB0D480B4984608C
:100650000160047304754FF460214460C16101219D
:10066000016100F069F9002801D072B6FEE706B01A
:1006700010BD0000001002400008014000240140AD
:100680001000002000B58FB028216846FFF773FEE8
:1006900014210AA8FFF76FFE02200090012010210C
:1006A000CDE904010790684600F092FD08B172B6EA
:1006B000FEE70F200A9000200B900C900D90014651
:1006C0000E900AA800F0A8FC08B172B6FEE7034835
:1006D000416821F4404141600FB000BD001002406C
:1006E00010B586B0194800240294816941F00401D4
:1006F0008161816901F004010491816941F48041C3
:1007000081618069694600F4804004904FF4007074
:10071000009002200190032003900D4800F0C6FADB
:100720000D480C4901604FF41651C0E9011408212D
:10073000C460C0E904418461C46100F0EDFE00289A
:1007400001D072B6FEE706B010BD000000100240F6
:10075000000801400038014040000020F8B50025A5
:100760000446009590F8240001280BD0012084F85D
:1007700024002046FFF7E2FE2046FFF70BFF0600AD
:1007800002D050E00220F8BDA06A20F4885040F06A
:100790000200A062022000F0EDFB25490968B1FBD0
:1007A000F0F0400000E0401E00900028FBD12068DF
:1007B000816841F00801816000F068FB074608E0AD
:1007C00000F064FBC01B0A2803D92068806800077A
:1007D00015D4206880680007F2D42068816841F051
:1007E0000401816000F052FB074612E000F04EFB6E
:1007F000C01B0A280DD920688068400709D5A06A67
:1008000020F0020040F01000A06284F82450012083
:10081000F8BD206880684007E8D4A06A20F0020094
:1008200040F00100A06284F824503046F8BD00007A
:100830000C000020F8B50024009490F824202546F0
:10084000012A12D0012280F824204A681F23072A97
:100850000DD20668776B521E02EB820293409F43D3
:100860000B6893401F43776319E00220F8BD0668C8
:100870000D2A0AD2376BD21F02EB820293409F43AC
:100880000B6893401F43376309E0F76A0D3A02EBA8
:10089000820293409F430B6893401F43F7620A68AC
:1008A000072306680A2A0AD3F7680A3A02EB4202CB
:1008B00093409F438B6893401F43F76008E037697C
:1008C00002EB420293409F438B6893401F43376182
:1008D0000A68102A01D0112A20D1124B02689A42CC
:1008E00017D193681B0219D4936843F400039360F3
:1008F0000968102912D10C490C4A0968B1FBF2F1C0
:1009000001EB8101490000E0491E00910029FBD163
:1009100004E0816A41F020018162012480F82450C2
:100920002046F8BD002401400C00002040420F008A
:100930000068C06C704700002DE9F0414FF00007DF
:1009400004003D467ED0A06A002628B9E66284F8FD
:100950002460204600F07EF82046FFF7EFFDA16AF4
:10096000C90600D420B1A06A40F01000A06269E07E
:10097000A16A21F4885141F00201A1626268E16933
:10098000237B0A4347EA43010A43A1684FF4807777
:10099000B94209D0012907D05FF0000194F814C0D2
:1009A000BCF1010F02D00AE03946F7E7F3B1A36AC0
:1009B00043F02003A362E36A43F00103E362236888
:1009C000D3F804C02CF4694C4CEA010CC3F804C001
:1009D00021688B68DFF870C003EA0C0313438B6057
:1009E000A168B9420BD0012909D00CE0DFF85CC046
:1009F000A3690CEB43330B4343F40061DFE7218A27
:100A00000D05A5F580152168CB6A23F470032B43EF
:100A1000CB62216889680E4B1940914208D1E66289
:100A2000A16A21F0020141F00101A162BDE8F0815B
:100A3000A06A20F0020040F01000A062E06A40F0DE
:100A40000100E0620120F1E7FDF7E1FF00E0FFFFB8
:100A5000FE0E1FFF704700002DE9F84300270D46EA
:100A60000446009700F012FA804620688168C905A4
:100A700008D5A06A40F02000A06284F8247001200C
:100A8000BDE8F8834168C90503D4C06A10F4700F4B
:100A90002AD0022000F06EFA3B490968B1FBF0F65B
:100AA0002068036939490B424FEA61014FEAA112FC
:100AB0001FD1C3684FEA611C13EA0C0F19D10369F7
:100AC0000B4225D1C068104222D1142023E0681CBB
:100AD0000AD02DB100F0DAF9A0EB0800A84203D942
:100AE00020680068800725D5206800688007EED55B
:100AF0002DE003690B4202D1C168114206D00269A0
:100B000023490A4206D1C068084203D1542002E0BA
:100B1000292000E0FC204643009816E0681C11D014
:100B20002DB100F0B3F9A0EB0800A8420AD9009853
:100B3000B04207D2A06A40F00400A06284F824709A
:100B400003209DE70098401C0090B042E6D3216846
:100B50006FF012000860A06A40F40070A062206884
:100B60008068C0F3424007280CD1207B50B9A06AAE
:100B700020F48070A062A06AC00403D4A06A40F090
:100B80000100A06200207BE70C0000202449922491
:100B90004992240070B5044690F8240001280DD035
:100BA000012084F824002046FFF7F4FC02004FF0F7
:100BB000000005D084F82400104670BD022070BDEE
:100BC000A16A40F20123994341F48071A1621F4D53
:100BD00023681F49AB4218D10E6816F4702F14D049
:100BE000A66A46F48016A6620E68760505D5A66A42
:100BF00026F4005646F48056A662A66AF6040AD584
:100C0000E66A26F00606E66206E0A66A26F4801684
:100C1000A6625E68E9E7E06284F824006FF00200F3
:100C2000186020688368C3F34243072B05D1A842AC
:100C300008D1096811F4702F04D0816841F4801143
:100C40008160B9E7816841F4A001F9E7002801401B
:100C50000424014010B5044690F82400012807D070
:100C6000012084F824002046FFF768FC10B107E05B
:100C7000022010BDA16A21F4885141F00101A16256
:100C8000002184F8241010BD70B5044600F0FEF871
:100C90000546601C02D004480078044400F0F6F8D1
:100CA000401BA042FAD370BD000000202DE9F84F90
:100CB000DFF8B8910024A9F1040B23460F2709F1AE
:100CC000040AABF1040EC9E00125A5402A40AA425E
:100CD0007DD1674ED1F804C0ACEB0608B44532D0E4
:100CE00014DCBCF1030F3AD009DCBCF1000F2AD0B0
:100CF000BCF1010F1CD0BCF1020F31D11DE0BCF1E1
:100D0000110F17D0BCF1120F2AD119E0B8F5881FC6
:100D100019D006DCB8F5803F15D0B8F5801F1FD17B
:100D200011E0B8F5001F0ED0B8F5041F18D10AE085
:100D3000CB6815E0CB681B1D12E0CB6808330FE0D1
:100D4000CB680C330CE08B682BB1012B4FF0080300
:100D500003D0456104E0042302E0056100E00023C4
:100D6000FF2A01D8064601E000F104064FEA840597
:100D700001D9A5F12005D6F8008007FA05FC28EA7C
:100D80000C0803FA05F548EA0508C6F800804D6826
:100D9000ED0062D5374DAE6946F00106AE61AD6932
:100DA00024F0030605F001050095334D06EB050C14
:100DB000DCF80850A607360F07FA06F825EA0805FA
:100DC000DFF8B880404503D14FF0000817E044E059
:100DD000DFF8AC80404502D14FF001080FE0DFF8AA
:100DE000A480404502D14FF0020808E0DFF8988067
:100DF000404502D14FF0030801E04FF0040808FA23
:100E000006F848EA0508CCF808804D68D9F8006073
:100E1000ED024D4601D5164300E096432E604D6825
:100E2000DAF80060AD02554601D5164300E096435E
:100E30002E604D68DBF80060AD035D4601D51643BA
:100E400000E096432E604D68DEF80060ED037546C5
:100E500001D5164300E096432E60641C0D682A46B7
:100E6000E5407FF431AFBDE8F88F00000804014091
:100E70000000111000100240000001400008014075
:100E8000000C01400010014000140140014880683E
:100E90007047000000000020024881680278114479
:100EA0008160704700000020074810B5016841F0DC
:100EB00010010160032000F04BF80F2000F006F84D
:100EC00000F024F8002010BD0020024070B50D4D48
:100ED00004464FF47A712878B1FBF0F00A490968AA
:100EE000B1FBF0F000F004FB48B9102C07D200224F
:100EF0002146501E00F00CF800206C6070BD0120EF
:100F000070BD0000000000200C00002070470000B1
:100F1000F0B40E4B1B680C46C3F30223C3F1070564
:100F2000042D00D90425191D072901D2002300E052
:100F3000DB1E012606FA05F1491E214099409E401C
:100F4000761E16403143F0BC00F051BC0CED00E0C1
:100F5000064900F0070208684FF6FF03184040EA10
:100F60000220034A10430860704700000CED00E0C7
:100F70000000FA0510B501460020234C012922D0BB
:100F8000022939D010291DD161682268D20119D5F2
:100F90001E48C1F38342C903805C0AD561681B4ABD
:100FA000C1F34041921E515C194AB2FBF1F1484332
:100FB00001E0184948436168490203D44000032115
:100FC000B0FBF1F010BD226AC2F30121012903D167
:100FD000920701D5C80310BD022905D1626A9207A4
:100FE00002D549F6404010BD0329FCD12168890390
:100FF000F9D54FF2244010BD00F0B4F86168C1F398
:101000008131491C4900DBE700100240CC18000880
:1010100000127A0000093D002DE9F0470F46050057
:1010200061D0434E306800F00700B84209D2306802
:1010300020F0070038433060306800F00700B84205
:1010400051D128683B4C810712D5400703D5606811
:1010500040F4E06060602878000703D5606840F4E1
:10106000605060606068A96820F0F000084360602C
:101070002878C00728D06868012810D02168022885
:1010800010D0890700292EDA616821F0030101439D
:101090006160FFF7FBFE804641F288390DE0216870
:1010A0008903EFE78901EDE7FFF7F0FEA0EB080108
:1010B000494502D90320BDE8F0876068696800F0FF
:1010C0000C00B0EB810FEFD1306800F00700B842A0
:1010D0000BD9306820F0070038433060306800F0EA
:1010E0000700B84201D00120E5E72878400705D580
:1010F0006068E96820F4E0600843606028780007D1
:1011000006D56068296920F4605040EAC10060603B
:1011100000F038F86168084AC1F30311515CC84017
:101120000649086006480068FFF7D0FE0020C2E7C5
:101130000020024000100240DC1800080C000020D3
:10114000040000200448054900684968044AC1F3C6
:101150000221515CC84070470C0000200010024082
:10116000EC1800080448054900684968044AC1F3BE
:10117000C221515CC84070470C00002000100240A2
:10118000EC1800080E4A51680E4801F00C03042BBD
:1011900011D0082B0FD10C48C1F38343C903C05CA5
:1011A0000AD55168084AC1F34041921E515C054A74
:1011B0005043B0FBF1F070470449484370470000CA
:1011C0000010024000127A00BA18000800093D0021
:1011D0002DE9F84F040070D02078C04DC00749D0E9
:1011E0006868C0F38100012807D06868C0F38100F7
:1011F000022809D16868C00306D52868800339D55C
:1012000060680028E7D035E06068B0F5803F0BD01B
:1012100010B1B0F5A02F11D0286820F480302860DC
:10122000286820F4802002E0286840F4803028609C
:10123000606890B1FFF72AFE06460AE0286840F48D
:1012400080202860F0E700BFFFF720FE801B6428A5
:1012500073D828688003F7D50CE0FFF717FE064621
:1012600005E000BFFFF712FE801B6428F0D8286855
:101270008003F7D420789A4E80074FF001094FF091
:10128000000839D5686810F00C0F07D06868C0F303
:101290008100022809D16868C00306D42868800745
:1012A00014D52069012808D110E02069B0B1C6F832
:1012B0000090FFF7EBFD074605E00AE1FFF7E6FDCA
:1012C000C01B0228C4D828688007F7D52868616940
:1012D00020F0F80040EAC10028600DE0C6F8008068
:1012E000FFF7D4FD074604E0FFF7D0FDC01B02283E
:1012F00023D828688007F7D4207800072CD57948B0
:10130000A169D9B1C0F80090FFF7C0FD074604E01D
:10131000FFF7BCFDC01B02280FD8686A8007F7D50D
:1013200071484FF4FA510068B0FBF1F0009000BF33
:101330000098411E0091FAD20EE080E0C0F80080D3
:10134000FFF7A4FD074604E0FFF7A0FDC01B02283D
:1013500075D8686A8007F7D42078400760D5E869B7
:101360000027C00008D4E86940F08050E861E869CF
:10137000012700F0805000905C480168C90513D433
:101380000168834641F480710160FFF77FFD82466A
:1013900006E000BFFFF77AFDA0EB0A0064284ED8F4
:1013A000DBF80000C005F5D5E06801280AD008B1D7
:1013B000052813D0286A20F001002862286A20F04E
:1013C000040002E0286A40F001002862E06841F26F
:1013D000883B98B1FFF75AFD82460BE0286A40F03F
:1013E00004002862EEE700BFFFF750FDA0EB0A0102
:1013F00059455AD8286A8007F6D50CE0FFF746FD14
:10140000824605E0FFF742FDA0EB0A0159454CD8A2
:10141000286A8007F6D41FB1E86920F08050E8619F
:10142000E06988B36968C1F38101022944D00228C8
:10143000C6F8608004D0FFF729FD044638E034E0A8
:10144000FFF724FD074604E0FFF720FDC01B02283C
:101450002BD828688001F7D4206AB0F5803F05D1E9
:101460006868A16820F4003008436860D4E9080186
:101470000843696821F4741108436860C6F86090F5
:10148000FFF704FD044606E025E000BFFFF7FEFC81
:10149000001B022809D828688001F7D51BE000BF8F
:1014A000FFF7F4FC001B022802D90320BDE8F88FE7
:1014B00028688001F4D40EE00128F7D06868226A19
:1014C00000F48031914204D1616A00F470108842C6
:1014D00001D00120EAE70020E8E700000010024008
:1014E00000004242800442420C0000200070004094
:1014F00010B5401EB0F1807F01D3012010BD4FF028
:10150000E02460610F21601700F071F90020A061F4
:1015100007202061002010BD70B5040004D094F8AD
:101520004100002510B106E0012070BD84F8405054
:10153000204600F023F8242084F841002068C16888
:1015400021F40051C160204600F0BCF82068016918
:1015500021F4904101612068416921F02A01416133
:101560002068C16841F40051C1606564202084F89E
:10157000410084F842006563002070BD70472DE98A
:10158000F843044690F84100984616460D46202838
:1015900002D00220BDE8F88385B17EB100206064EE
:1015A000212084F84100FFF771FCA6848146E6847F
:1015B000A0682027B0F5805F02D003E00120E9E7B2
:1015C000206910B12E4600250EE000260CE0802197
:1015D000204600F0D3F8A8B9C6B116F8010B21686F
:1015E0004860E08C401EE084E08C4B464FF00002E7
:1015F000CDF800800028EAD14FF04001204600F0ED
:10160000BDF840B184F841700320C3E735F8020B00
:10161000C0F30800E3E784F841700020BAE7000057
:101620003EB56946009001200190072002900F48C6
:10163000FFF700F908B172B6FEE70C48FFF7AAFA07
:1016400008B172B6FEE714210848FFF705FA08B1A1
:1016500072B6FEE70548FFF76BF904460348FFF74B
:10166000F9FA08B172B6FEE720463EBD1000002030
:10167000FFF712BC704701680C3151E8002F22F4CB
:10168000907241E80023002BF5D10168143151E834
:10169000002F22F0010241E80023002BF5D1016B5D
:1016A000012909D101680C3151E8002F22F0100204
:1016B00041E80023002BF5D1202180F842100021C1
:1016C0000163704770B5044600680169E26821F45F
:1016D0004051114301612169A068084361690843D1
:1016E0002168CA6841F20C639A430243CA602068C9
:1016F0004169A26921F44071114341611E4920688A
:10170000884202D1FFF72EFD01E0FFF71BFD00EB41
:10171000C00101EB0012606864218000B2FBF0F3AD
:10172000B3FBF1F36FF018067343B2FBF0F5B2FBB5
:10173000F0F605EB8305322303EB0515B5FBF1F558
:10174000B6FBF1F605F0F00505EB0615B2FBF0F679
:10175000B2FBF0F0B0FBF1F06FF01802504306EB73
:10176000800003EB0010B0FBF1F0216800F00F00E7
:101770002844886070BD0000003801402DE9F8431E
:10178000984617460D460446089E24E0701C22D059
:10179000FFF77CFBA0EB0800B0421AD8CEB120685E
:1017A000C168490717D5802D15D0402D13D0016889
:1017B000C94309070FD401680025406800902046FE
:1017C000FFF759FF0820606484F840500120BDE80D
:1017D000F8830320FBE72068006835EA000004D0A6
:1017E0000020B842D2D00020F1E70120F9E7090734
:1017F000090E002804DB00F1E02080F80014704797
:1018000000F00F0000F1E02080F8141D7047000088
:101810009CB0FFF749FBFEF735FFFEF7F9FEFEF738
:101820005FFF1B48FEF79AFF08B172B6FEE740F66D
:10183000FF750020FFF7F4FE04460120FFF7F0FEDD
:1018400040F6E4414143B1FBF5F340F6E441614326
:10185000B1FBF5F18DE813000EA2602103A8FEF79D
:10186000B7FC602801D372B6FEE703A8FEF764FD5B
:1018700082B20748642303A93030FFF780FE08B125
:1018800072B6FEE74FF4FA70FFF7FEF9D1E70000F9
:101890001000002056413D256C75206D56202825EE
:1018A0006C7529202056423D256C75206D562028E8
:1018B000256C75290D0A00000102020304050607C4
:1018C00008090A0B0C0D0E0F10100102020304058B
:1018D000060708090A0B0C0D0E0F1010000000007F
:1018E00000000000010203040607080900000000D0
:1018F0000102030414190008000000201000000079
:10190000280100082419000810000020D806000053
:101910004401000801000000100000000000000069
:0419200000127A0037
:04000005080000ED02
:00000001FF
